{
  "_format": "hh-sol-artifact-1",
  "contractName": "TypingGame",
  "sourceName": "contracts/Lock.sol",
  "abi": [
    {
      "inputs": [
        {
          "internalType": "address",
          "name": "_tokenAddress",
          "type": "address"
        }
      ],
      "stateMutability": "nonpayable",
      "type": "constructor"
    },
    {
      "anonymous": false,
      "inputs": [
        {
          "indexed": true,
          "internalType": "address",
          "name": "player",
          "type": "address"
        },
        {
          "indexed": false,
          "internalType": "uint256",
          "name": "amount",
          "type": "uint256"
        }
      ],
      "name": "Entered",
      "type": "event"
    },
    {
      "anonymous": false,
      "inputs": [
        {
          "indexed": true,
          "internalType": "address",
          "name": "player",
          "type": "address"
        },
        {
          "indexed": false,
          "internalType": "uint256",
          "name": "amount",
          "type": "uint256"
        }
      ],
      "name": "RewardClaimed",
      "type": "event"
    },
    {
      "anonymous": false,
      "inputs": [
        {
          "indexed": true,
          "internalType": "address",
          "name": "player",
          "type": "address"
        },
        {
          "indexed": false,
          "internalType": "uint256",
          "name": "wpm",
          "type": "uint256"
        },
        {
          "indexed": false,
          "internalType": "uint256",
          "name": "accuracy",
          "type": "uint256"
        }
      ],
      "name": "ScoreSubmitted",
      "type": "event"
    },
    {
      "inputs": [],
      "name": "enter",
      "outputs": [],
      "stateMutability": "nonpayable",
      "type": "function"
    },
    {
      "inputs": [],
      "name": "getScores",
      "outputs": [
        {
          "components": [
            {
              "internalType": "address",
              "name": "player",
              "type": "address"
            },
            {
              "internalType": "uint256",
              "name": "wpm",
              "type": "uint256"
            },
            {
              "internalType": "uint256",
              "name": "accuracy",
              "type": "uint256"
            },
            {
              "internalType": "uint256",
              "name": "timestamp",
              "type": "uint256"
            }
          ],
          "internalType": "struct TypingGame.PlayerScore[]",
          "name": "",
          "type": "tuple[]"
        }
      ],
      "stateMutability": "view",
      "type": "function"
    },
    {
      "inputs": [
        {
          "internalType": "address",
          "name": "",
          "type": "address"
        }
      ],
      "name": "hasEntered",
      "outputs": [
        {
          "internalType": "bool",
          "name": "",
          "type": "bool"
        }
      ],
      "stateMutability": "view",
      "type": "function"
    },
    {
      "inputs": [],
      "name": "owner",
      "outputs": [
        {
          "internalType": "address",
          "name": "",
          "type": "address"
        }
      ],
      "stateMutability": "view",
      "type": "function"
    },
    {
      "inputs": [
        {
          "internalType": "address",
          "name": "_player",
          "type": "address"
        }
      ],
      "name": "resetPlayer",
      "outputs": [],
      "stateMutability": "nonpayable",
      "type": "function"
    },
    {
      "inputs": [
        {
          "internalType": "uint256",
          "name": "",
          "type": "uint256"
        }
      ],
      "name": "scores",
      "outputs": [
        {
          "internalType": "address",
          "name": "player",
          "type": "address"
        },
        {
          "internalType": "uint256",
          "name": "wpm",
          "type": "uint256"
        },
        {
          "internalType": "uint256",
          "name": "accuracy",
          "type": "uint256"
        },
        {
          "internalType": "uint256",
          "name": "timestamp",
          "type": "uint256"
        }
      ],
      "stateMutability": "view",
      "type": "function"
    },
    {
      "inputs": [
        {
          "internalType": "uint256",
          "name": "_wpm",
          "type": "uint256"
        },
        {
          "internalType": "uint256",
          "name": "_accuracy",
          "type": "uint256"
        }
      ],
      "name": "submitScore",
      "outputs": [],
      "stateMutability": "nonpayable",
      "type": "function"
    }
  ],
  "bytecode": "0x608060405234801561001057600080fd5b50604051610da8380380610da8833981810160405281019061003291906100db565b336000806101000a81548173ffffffffffffffffffffffffffffffffffffffff021916908373ffffffffffffffffffffffffffffffffffffffff16021790555050610108565b600080fd5b600073ffffffffffffffffffffffffffffffffffffffff82169050919050565b60006100a88261007d565b9050919050565b6100b88161009d565b81146100c357600080fd5b50565b6000815190506100d5816100af565b92915050565b6000602082840312156100f1576100f0610078565b5b60006100ff848285016100c6565b91505092915050565b610c91806101176000396000f3fe608060405234801561001057600080fd5b506004361061007d5760003560e01c80638358ba081161005b5780638358ba08146101035780638da5cb5b1461011f578063c95e09091461013d578063e97dcb62146101595761007d565b80631ea1380c1461008257806324d70dea146100a05780632ee691a3146100d0575b600080fd5b61008a610163565b6040516100979190610844565b60405180910390f35b6100ba60048036038101906100b59190610897565b610236565b6040516100c791906108df565b60405180910390f35b6100ea60048036038101906100e59190610926565b610256565b6040516100fa9493929190610971565b60405180910390f35b61011d600480360381019061011891906109b6565b6102b6565b005b6101276104a3565b60405161013491906109f6565b60405180910390f35b61015760048036038101906101529190610897565b6104c7565b005b6101616105b0565b005b60606001805480602002602001604051908101604052809291908181526020016000905b8282101561022d57838290600052602060002090600402016040518060800160405290816000820160009054906101000a900473ffffffffffffffffffffffffffffffffffffffff1673ffffffffffffffffffffffffffffffffffffffff1673ffffffffffffffffffffffffffffffffffffffff168152602001600182015481526020016002820154815260200160038201548152505081526020019060010190610187565b50505050905090565b60026020528060005260406000206000915054906101000a900460ff1681565b6001818154811061026657600080fd5b90600052602060002090600402016000915090508060000160009054906101000a900473ffffffffffffffffffffffffffffffffffffffff16908060010154908060020154908060030154905084565b600260003373ffffffffffffffffffffffffffffffffffffffff1673ffffffffffffffffffffffffffffffffffffffff16815260200190815260200160002060009054906101000a900460ff16610342576040517f08c379a000000000000000000000000000000000000000000000000000000000815260040161033990610a6e565b60405180910390fd5b6064811115610386576040517f08c379a000000000000000000000000000000000000000000000000000000000815260040161037d90610ada565b60405180910390fd5b600160405180608001604052803373ffffffffffffffffffffffffffffffffffffffff16815260200184815260200183815260200142815250908060018154018082558091505060019003906000526020600020906004020160009091909190915060008201518160000160006101000a81548173ffffffffffffffffffffffffffffffffffffffff021916908373ffffffffffffffffffffffffffffffffffffffff16021790555060208201518160010155604082015181600201556060820151816003015550503373ffffffffffffffffffffffffffffffffffffffff167fb7f20d0949b6a8bc59d005af4a52f7ff5d0cfcde9056fa556adb0e4b24dcb6d28383604051610497929190610afa565b60405180910390a25050565b60008054906101000a900473ffffffffffffffffffffffffffffffffffffffff1681565b60008054906101000a900473ffffffffffffffffffffffffffffffffffffffff1673ffffffffffffffffffffffffffffffffffffffff163373ffffffffffffffffffffffffffffffffffffffff1614610555576040517f08c379a000000000000000000000000000000000000000000000000000000000815260040161054c90610b6f565b60405180910390fd5b6000600260008373ffffffffffffffffffffffffffffffffffffffff1673ffffffffffffffffffffffffffffffffffffffff16815260200190815260200160002060006101000a81548160ff02191690831515021790555050565b600260003373ffffffffffffffffffffffffffffffffffffffff1673ffffffffffffffffffffffffffffffffffffffff16815260200190815260200160002060009054906101000a900460ff161561063d576040517f08c379a000000000000000000000000000000000000000000000000000000000815260040161063490610bdb565b60405180910390fd5b6001600260003373ffffffffffffffffffffffffffffffffffffffff1673ffffffffffffffffffffffffffffffffffffffff16815260200190815260200160002060006101000a81548160ff0219169083151502179055503373ffffffffffffffffffffffffffffffffffffffff167fdb4b459b9af0810582f21ec0ec043ee9c3f91ea26a3d3a675dea0e9e5e099f0560006040516106dc9190610c40565b60405180910390a2565b600081519050919050565b600082825260208201905092915050565b6000819050602082019050919050565b600073ffffffffffffffffffffffffffffffffffffffff82169050919050565b600061073d82610712565b9050919050565b61074d81610732565b82525050565b6000819050919050565b61076681610753565b82525050565b6080820160008201516107826000850182610744565b506020820151610795602085018261075d565b5060408201516107a8604085018261075d565b5060608201516107bb606085018261075d565b50505050565b60006107cd838361076c565b60808301905092915050565b6000602082019050919050565b60006107f1826106e6565b6107fb81856106f1565b935061080683610702565b8060005b8381101561083757815161081e88826107c1565b9750610829836107d9565b92505060018101905061080a565b5085935050505092915050565b6000602082019050818103600083015261085e81846107e6565b905092915050565b600080fd5b61087481610732565b811461087f57600080fd5b50565b6000813590506108918161086b565b92915050565b6000602082840312156108ad576108ac610866565b5b60006108bb84828501610882565b91505092915050565b60008115159050919050565b6108d9816108c4565b82525050565b60006020820190506108f460008301846108d0565b92915050565b61090381610753565b811461090e57600080fd5b50565b600081359050610920816108fa565b92915050565b60006020828403121561093c5761093b610866565b5b600061094a84828501610911565b91505092915050565b61095c81610732565b82525050565b61096b81610753565b82525050565b60006080820190506109866000830187610953565b6109936020830186610962565b6109a06040830185610962565b6109ad6060830184610962565b95945050505050565b600080604083850312156109cd576109cc610866565b5b60006109db85828601610911565b92505060206109ec85828601610911565b9150509250929050565b6000602082019050610a0b6000830184610953565b92915050565b600082825260208201905092915050565b7f4d75737420656e74657220666972737400000000000000000000000000000000600082015250565b6000610a58601083610a11565b9150610a6382610a22565b602082019050919050565b60006020820190508181036000830152610a8781610a4b565b9050919050565b7f496e76616c696420616363757261637900000000000000000000000000000000600082015250565b6000610ac4601083610a11565b9150610acf82610a8e565b602082019050919050565b60006020820190508181036000830152610af381610ab7565b9050919050565b6000604082019050610b0f6000830185610962565b610b1c6020830184610962565b9392505050565b7f4f6e6c79206f776e657200000000000000000000000000000000000000000000600082015250565b6000610b59600a83610a11565b9150610b6482610b23565b602082019050919050565b60006020820190508181036000830152610b8881610b4c565b9050919050565b7f416c726561647920656e74657265640000000000000000000000000000000000600082015250565b6000610bc5600f83610a11565b9150610bd082610b8f565b602082019050919050565b60006020820190508181036000830152610bf481610bb8565b9050919050565b6000819050919050565b6000819050919050565b6000610c2a610c25610c2084610bfb565b610c05565b610753565b9050919050565b610c3a81610c0f565b82525050565b6000602082019050610c556000830184610c31565b9291505056fea264697066735822122028ad43771b00888015be2d6492f85e08b98c42c4b089cdab4ed0d285f95708b564736f6c634300081c0033",
  "linkReferences": {},
  "deployedLinkReferences": {}
}