{
  "_format": "hh-sol-artifact-1",
  "contractName": "TestToken",
  "sourceName": "contracts/TestToken.sol",
  "abi": [
    {
      "inputs": [],
      "stateMutability": "nonpayable",
      "type": "constructor"
    },
    {
      "inputs": [
        {
          "internalType": "address",
          "name": "spender",
          "type": "address"
        },
        {
          "internalType": "uint256",
          "name": "allowance",
          "type": "uint256"
        },
        {
          "internalType": "uint256",
          "name": "needed",
          "type": "uint256"
        }
      ],
      "name": "ERC20InsufficientAllowance",
      "type": "error"
    },
    {
      "inputs": [
        {
          "internalType": "address",
          "name": "sender",
          "type": "address"
        },
        {
          "internalType": "uint256",
          "name": "balance",
          "type": "uint256"
        },
        {
          "internalType": "uint256",
          "name": "needed",
          "type": "uint256"
        }
      ],
      "name": "ERC20InsufficientBalance",
      "type": "error"
    },
    {
      "inputs": [
        {
          "internalType": "address",
          "name": "approver",
          "type": "address"
        }
      ],
      "name": "ERC20InvalidApprover",
      "type": "error"
    },
    {
      "inputs": [
        {
          "internalType": "address",
          "name": "receiver",
          "type": "address"
        }
      ],
      "name": "ERC20InvalidReceiver",
      "type": "error"
    },
    {
      "inputs": [
        {
          "internalType": "address",
          "name": "sender",
          "type": "address"
        }
      ],
      "name": "ERC20InvalidSender",
      "type": "error"
    },
    {
      "inputs": [
        {
          "internalType": "address",
          "name": "spender",
          "type": "address"
        }
      ],
      "name": "ERC20InvalidSpender",
      "type": "error"
    },
    {
      "inputs": [
        {
          "internalType": "address",
          "name": "owner",
          "type": "address"
        }
      ],
      "name": "OwnableInvalidOwner",
      "type": "error"
    },
    {
      "inputs": [
        {
          "internalType": "address",
          "name": "account",
          "type": "address"
        }
      ],
      "name": "OwnableUnauthorizedAccount",
      "type": "error"
    },
    {
      "anonymous": false,
      "inputs": [
        {
          "indexed": true,
          "internalType": "address",
          "name": "owner",
          "type": "address"
        },
        {
          "indexed": true,
          "internalType": "address",
          "name": "spender",
          "type": "address"
        },
        {
          "indexed": false,
          "internalType": "uint256",
          "name": "value",
          "type": "uint256"
        }
      ],
      "name": "Approval",
      "type": "event"
    },
    {
      "anonymous": false,
      "inputs": [
        {
          "indexed": true,
          "internalType": "address",
          "name": "previousOwner",
          "type": "address"
        },
        {
          "indexed": true,
          "internalType": "address",
          "name": "newOwner",
          "type": "address"
        }
      ],
      "name": "OwnershipTransferred",
      "type": "event"
    },
    {
      "anonymous": false,
      "inputs": [
        {
          "indexed": true,
          "internalType": "address",
          "name": "from",
          "type": "address"
        },
        {
          "indexed": true,
          "internalType": "address",
          "name": "to",
          "type": "address"
        },
        {
          "indexed": false,
          "internalType": "uint256",
          "name": "value",
          "type": "uint256"
        }
      ],
      "name": "Transfer",
      "type": "event"
    },
    {
      "inputs": [
        {
          "internalType": "address",
          "name": "owner",
          "type": "address"
        },
        {
          "internalType": "address",
          "name": "spender",
          "type": "address"
        }
      ],
      "name": "allowance",
      "outputs": [
        {
          "internalType": "uint256",
          "name": "",
          "type": "uint256"
        }
      ],
      "stateMutability": "view",
      "type": "function"
    },
    {
      "inputs": [
        {
          "internalType": "address",
          "name": "spender",
          "type": "address"
        },
        {
          "internalType": "uint256",
          "name": "value",
          "type": "uint256"
        }
      ],
      "name": "approve",
      "outputs": [
        {
          "internalType": "bool",
          "name": "",
          "type": "bool"
        }
      ],
      "stateMutability": "nonpayable",
      "type": "function"
    },
    {
      "inputs": [
        {
          "internalType": "address",
          "name": "account",
          "type": "address"
        }
      ],
      "name": "balanceOf",
      "outputs": [
        {
          "internalType": "uint256",
          "name": "",
          "type": "uint256"
        }
      ],
      "stateMutability": "view",
      "type": "function"
    },
    {
      "inputs": [],
      "name": "decimals",
      "outputs": [
        {
          "internalType": "uint8",
          "name": "",
          "type": "uint8"
        }
      ],
      "stateMutability": "view",
      "type": "function"
    },
    {
      "inputs": [
        {
          "internalType": "uint256",
          "name": "amount",
          "type": "uint256"
        }
      ],
      "name": "faucet",
      "outputs": [],
      "stateMutability": "nonpayable",
      "type": "function"
    },
    {
      "inputs": [
        {
          "internalType": "address",
          "name": "to",
          "type": "address"
        },
        {
          "internalType": "uint256",
          "name": "amount",
          "type": "uint256"
        }
      ],
      "name": "mint",
      "outputs": [],
      "stateMutability": "nonpayable",
      "type": "function"
    },
    {
      "inputs": [],
      "name": "name",
      "outputs": [
        {
          "internalType": "string",
          "name": "",
          "type": "string"
        }
      ],
      "stateMutability": "view",
      "type": "function"
    },
    {
      "inputs": [],
      "name": "owner",
      "outputs": [
        {
          "internalType": "address",
          "name": "",
          "type": "address"
        }
      ],
      "stateMutability": "view",
      "type": "function"
    },
    {
      "inputs": [],
      "name": "renounceOwnership",
      "outputs": [],
      "stateMutability": "nonpayable",
      "type": "function"
    },
    {
      "inputs": [],
      "name": "symbol",
      "outputs": [
        {
          "internalType": "string",
          "name": "",
          "type": "string"
        }
      ],
      "stateMutability": "view",
      "type": "function"
    },
    {
      "inputs": [],
      "name": "totalSupply",
      "outputs": [
        {
          "internalType": "uint256",
          "name": "",
          "type": "uint256"
        }
      ],
      "stateMutability": "view",
      "type": "function"
    },
    {
      "inputs": [
        {
          "internalType": "address",
          "name": "to",
          "type": "address"
        },
        {
          "internalType": "uint256",
          "name": "value",
          "type": "uint256"
        }
      ],
      "name": "transfer",
      "outputs": [
        {
          "internalType": "bool",
          "name": "",
          "type": "bool"
        }
      ],
      "stateMutability": "nonpayable",
      "type": "function"
    },
    {
      "inputs": [
        {
          "internalType": "address",
          "name": "from",
          "type": "address"
        },
        {
          "internalType": "address",
          "name": "to",
          "type": "address"
        },
        {
          "internalType": "uint256",
          "name": "value",
          "type": "uint256"
        }
      ],
      "name": "transferFrom",
      "outputs": [
        {
          "internalType": "bool",
          "name": "",
          "type": "bool"
        }
      ],
      "stateMutability": "nonpayable",
      "type": "function"
    },
    {
      "inputs": [
        {
          "internalType": "address",
          "name": "newOwner",
          "type": "address"
        }
      ],
      "name": "transferOwnership",
      "outputs": [],
      "stateMutability": "nonpayable",
      "type": "function"
    }
  ],
  "bytecode": "0x608060405234801561001057600080fd5b50336040518060400160405280600a81526020017f5465737420546f6b656e000000000000000000000000000000000000000000008152506040518060400160405280600481526020017f5445535400000000000000000000000000000000000000000000000000000000815250816003908161008d9190610704565b50806004908161009d9190610704565b505050600073ffffffffffffffffffffffffffffffffffffffff168173ffffffffffffffffffffffffffffffffffffffff16036101125760006040517f1e4fbdf70000000000000000000000000000000000000000000000000000000081526004016101099190610817565b60405180910390fd5b6101218161014160201b60201c565b5061013c3369d3c21bcecceda100000061020760201b60201c565b6108f6565b6000600560009054906101000a900473ffffffffffffffffffffffffffffffffffffffff16905081600560006101000a81548173ffffffffffffffffffffffffffffffffffffffff021916908373ffffffffffffffffffffffffffffffffffffffff1602179055508173ffffffffffffffffffffffffffffffffffffffff168173ffffffffffffffffffffffffffffffffffffffff167f8be0079c531659141344cd1fd0a4f28419497f9722a3daafe3b4186f6b6457e060405160405180910390a35050565b600073ffffffffffffffffffffffffffffffffffffffff168273ffffffffffffffffffffffffffffffffffffffff16036102795760006040517fec442f050000000000000000000000000000000000000000000000000000000081526004016102709190610817565b60405180910390fd5b61028b6000838361028f60201b60201c565b5050565b600073ffffffffffffffffffffffffffffffffffffffff168373ffffffffffffffffffffffffffffffffffffffff16036102e15780600260008282546102d59190610861565b925050819055506103b4565b60008060008573ffffffffffffffffffffffffffffffffffffffff1673ffffffffffffffffffffffffffffffffffffffff1681526020019081526020016000205490508181101561036d578381836040517fe450d38c000000000000000000000000000000000000000000000000000000008152600401610364939291906108a4565b60405180910390fd5b8181036000808673ffffffffffffffffffffffffffffffffffffffff1673ffffffffffffffffffffffffffffffffffffffff16815260200190815260200160002081905550505b600073ffffffffffffffffffffffffffffffffffffffff168273ffffffffffffffffffffffffffffffffffffffff16036103fd578060026000828254039250508190555061044a565b806000808473ffffffffffffffffffffffffffffffffffffffff1673ffffffffffffffffffffffffffffffffffffffff168152602001908152602001600020600082825401925050819055505b8173ffffffffffffffffffffffffffffffffffffffff168373ffffffffffffffffffffffffffffffffffffffff167fddf252ad1be2c89b69c2b068fc378daa952ba7f163c4a11628f55a4df523b3ef836040516104a791906108db565b60405180910390a3505050565b600081519050919050565b7f4e487b7100000000000000000000000000000000000000000000000000000000600052604160045260246000fd5b7f4e487b7100000000000000000000000000000000000000000000000000000000600052602260045260246000fd5b6000600282049050600182168061053557607f821691505b602082108103610548576105476104ee565b5b50919050565b60008190508160005260206000209050919050565b60006020601f8301049050919050565b600082821b905092915050565b6000600883026105b07fffffffffffffffffffffffffffffffffffffffffffffffffffffffffffffffff82610573565b6105ba8683610573565b95508019841693508086168417925050509392505050565b6000819050919050565b6000819050919050565b60006106016105fc6105f7846105d2565b6105dc565b6105d2565b9050919050565b6000819050919050565b61061b836105e6565b61062f61062782610608565b848454610580565b825550505050565b600090565b610644610637565b61064f818484610612565b505050565b5b818110156106735761066860008261063c565b600181019050610655565b5050565b601f8211156106b8576106898161054e565b61069284610563565b810160208510156106a1578190505b6106b56106ad85610563565b830182610654565b50505b505050565b600082821c905092915050565b60006106db600019846008026106bd565b1980831691505092915050565b60006106f483836106ca565b9150826002028217905092915050565b61070d826104b4565b67ffffffffffffffff811115610726576107256104bf565b5b610730825461051d565b61073b828285610677565b600060209050601f83116001811461076e576000841561075c578287015190505b61076685826106e8565b8655506107ce565b601f19841661077c8661054e565b60005b828110156107a45784890151825560018201915060208501945060208101905061077f565b868310156107c157848901516107bd601f8916826106ca565b8355505b6001600288020188555050505b505050505050565b600073ffffffffffffffffffffffffffffffffffffffff82169050919050565b6000610801826107d6565b9050919050565b610811816107f6565b82525050565b600060208201905061082c6000830184610808565b92915050565b7f4e487b7100000000000000000000000000000000000000000000000000000000600052601160045260246000fd5b600061086c826105d2565b9150610877836105d2565b925082820190508082111561088f5761088e610832565b5b92915050565b61089e816105d2565b82525050565b60006060820190506108b96000830186610808565b6108c66020830185610895565b6108d36040830184610895565b949350505050565b60006020820190506108f06000830184610895565b92915050565b6112e2806109056000396000f3fe608060405234801561001057600080fd5b50600436106100ea5760003560e01c806370a082311161008c57806395d89b411161006657806395d89b4114610239578063a9059cbb14610257578063dd62ed3e14610287578063f2fde38b146102b7576100ea565b806370a08231146101e1578063715018a6146102115780638da5cb5b1461021b576100ea565b806323b872dd116100c857806323b872dd1461015b578063313ce5671461018b57806340c10f19146101a957806357915897146101c5576100ea565b806306fdde03146100ef578063095ea7b31461010d57806318160ddd1461013d575b600080fd5b6100f76102d3565b6040516101049190610e77565b60405180910390f35b61012760048036038101906101229190610f32565b610365565b6040516101349190610f8d565b60405180910390f35b610145610388565b6040516101529190610fb7565b60405180910390f35b61017560048036038101906101709190610fd2565b610392565b6040516101829190610f8d565b60405180910390f35b6101936103c1565b6040516101a09190611041565b60405180910390f35b6101c360048036038101906101be9190610f32565b6103ca565b005b6101df60048036038101906101da919061105c565b6103d8565b005b6101fb60048036038101906101f69190611089565b610431565b6040516102089190610fb7565b60405180910390f35b610219610479565b005b61022361048d565b60405161023091906110c5565b60405180910390f35b6102416104b7565b60405161024e9190610e77565b60405180910390f35b610271600480360381019061026c9190610f32565b610549565b60405161027e9190610f8d565b60405180910390f35b6102a1600480360381019061029c91906110e0565b61056c565b6040516102ae9190610fb7565b60405180910390f35b6102d160048036038101906102cc9190611089565b6105f3565b005b6060600380546102e29061114f565b80601f016020809104026020016040519081016040528092919081815260200182805461030e9061114f565b801561035b5780601f106103305761010080835404028352916020019161035b565b820191906000526020600020905b81548152906001019060200180831161033e57829003601f168201915b5050505050905090565b600080610370610679565b905061037d818585610681565b600191505092915050565b6000600254905090565b60008061039d610679565b90506103aa858285610693565b6103b5858585610728565b60019150509392505050565b60006012905090565b6103d4828261081c565b5050565b683635c9adc5dea00000811115610424576040517f08c379a000000000000000000000000000000000000000000000000000000000815260040161041b906111f2565b60405180910390fd5b61042e338261081c565b50565b60008060008373ffffffffffffffffffffffffffffffffffffffff1673ffffffffffffffffffffffffffffffffffffffff168152602001908152602001600020549050919050565b61048161089e565b61048b6000610925565b565b6000600560009054906101000a900473ffffffffffffffffffffffffffffffffffffffff16905090565b6060600480546104c69061114f565b80601f01602080910402602001604051908101604052809291908181526020018280546104f29061114f565b801561053f5780601f106105145761010080835404028352916020019161053f565b820191906000526020600020905b81548152906001019060200180831161052257829003601f168201915b5050505050905090565b600080610554610679565b9050610561818585610728565b600191505092915050565b6000600160008473ffffffffffffffffffffffffffffffffffffffff1673ffffffffffffffffffffffffffffffffffffffff16815260200190815260200160002060008373ffffffffffffffffffffffffffffffffffffffff1673ffffffffffffffffffffffffffffffffffffffff16815260200190815260200160002054905092915050565b6105fb61089e565b600073ffffffffffffffffffffffffffffffffffffffff168173ffffffffffffffffffffffffffffffffffffffff160361066d5760006040517f1e4fbdf700000000000000000000000000000000000000000000000000000000815260040161066491906110c5565b60405180910390fd5b61067681610925565b50565b600033905090565b61068e83838360016109eb565b505050565b600061069f848461056c565b90507fffffffffffffffffffffffffffffffffffffffffffffffffffffffffffffffff8110156107225781811015610712578281836040517ffb8f41b200000000000000000000000000000000000000000000000000000000815260040161070993929190611212565b60405180910390fd5b610721848484840360006109eb565b5b50505050565b600073ffffffffffffffffffffffffffffffffffffffff168373ffffffffffffffffffffffffffffffffffffffff160361079a5760006040517f96c6fd1e00000000000000000000000000000000000000000000000000000000815260040161079191906110c5565b60405180910390fd5b600073ffffffffffffffffffffffffffffffffffffffff168273ffffffffffffffffffffffffffffffffffffffff160361080c5760006040517fec442f0500000000000000000000000000000000000000000000000000000000815260040161080391906110c5565b60405180910390fd5b610817838383610bc2565b505050565b600073ffffffffffffffffffffffffffffffffffffffff168273ffffffffffffffffffffffffffffffffffffffff160361088e5760006040517fec442f0500000000000000000000000000000000000000000000000000000000815260040161088591906110c5565b60405180910390fd5b61089a60008383610bc2565b5050565b6108a6610679565b73ffffffffffffffffffffffffffffffffffffffff166108c461048d565b73ffffffffffffffffffffffffffffffffffffffff1614610923576108e7610679565b6040517f118cdaa700000000000000000000000000000000000000000000000000000000815260040161091a91906110c5565b60405180910390fd5b565b6000600560009054906101000a900473ffffffffffffffffffffffffffffffffffffffff16905081600560006101000a81548173ffffffffffffffffffffffffffffffffffffffff021916908373ffffffffffffffffffffffffffffffffffffffff1602179055508173ffffffffffffffffffffffffffffffffffffffff168173ffffffffffffffffffffffffffffffffffffffff167f8be0079c531659141344cd1fd0a4f28419497f9722a3daafe3b4186f6b6457e060405160405180910390a35050565b600073ffffffffffffffffffffffffffffffffffffffff168473ffffffffffffffffffffffffffffffffffffffff1603610a5d5760006040517fe602df05000000000000000000000000000000000000000000000000000000008152600401610a5491906110c5565b60405180910390fd5b600073ffffffffffffffffffffffffffffffffffffffff168373ffffffffffffffffffffffffffffffffffffffff1603610acf5760006040517f94280d62000000000000000000000000000000000000000000000000000000008152600401610ac691906110c5565b60405180910390fd5b81600160008673ffffffffffffffffffffffffffffffffffffffff1673ffffffffffffffffffffffffffffffffffffffff16815260200190815260200160002060008573ffffffffffffffffffffffffffffffffffffffff1673ffffffffffffffffffffffffffffffffffffffff168152602001908152602001600020819055508015610bbc578273ffffffffffffffffffffffffffffffffffffffff168473ffffffffffffffffffffffffffffffffffffffff167f8c5be1e5ebec7d5bd14f71427d1e84f3dd0314c0f7b2291e5b200ac8c7c3b92584604051610bb39190610fb7565b60405180910390a35b50505050565b600073ffffffffffffffffffffffffffffffffffffffff168373ffffffffffffffffffffffffffffffffffffffff1603610c14578060026000828254610c089190611278565b92505081905550610ce7565b60008060008573ffffffffffffffffffffffffffffffffffffffff1673ffffffffffffffffffffffffffffffffffffffff16815260200190815260200160002054905081811015610ca0578381836040517fe450d38c000000000000000000000000000000000000000000000000000000008152600401610c9793929190611212565b60405180910390fd5b8181036000808673ffffffffffffffffffffffffffffffffffffffff1673ffffffffffffffffffffffffffffffffffffffff16815260200190815260200160002081905550505b600073ffffffffffffffffffffffffffffffffffffffff168273ffffffffffffffffffffffffffffffffffffffff1603610d305780600260008282540392505081905550610d7d565b806000808473ffffffffffffffffffffffffffffffffffffffff1673ffffffffffffffffffffffffffffffffffffffff168152602001908152602001600020600082825401925050819055505b8173ffffffffffffffffffffffffffffffffffffffff168373ffffffffffffffffffffffffffffffffffffffff167fddf252ad1be2c89b69c2b068fc378daa952ba7f163c4a11628f55a4df523b3ef83604051610dda9190610fb7565b60405180910390a3505050565b600081519050919050565b600082825260208201905092915050565b60005b83811015610e21578082015181840152602081019050610e06565b60008484015250505050565b6000601f19601f8301169050919050565b6000610e4982610de7565b610e538185610df2565b9350610e63818560208601610e03565b610e6c81610e2d565b840191505092915050565b60006020820190508181036000830152610e918184610e3e565b905092915050565b600080fd5b600073ffffffffffffffffffffffffffffffffffffffff82169050919050565b6000610ec982610e9e565b9050919050565b610ed981610ebe565b8114610ee457600080fd5b50565b600081359050610ef681610ed0565b92915050565b6000819050919050565b610f0f81610efc565b8114610f1a57600080fd5b50565b600081359050610f2c81610f06565b92915050565b60008060408385031215610f4957610f48610e99565b5b6000610f5785828601610ee7565b9250506020610f6885828601610f1d565b9150509250929050565b60008115159050919050565b610f8781610f72565b82525050565b6000602082019050610fa26000830184610f7e565b92915050565b610fb181610efc565b82525050565b6000602082019050610fcc6000830184610fa8565b92915050565b600080600060608486031215610feb57610fea610e99565b5b6000610ff986828701610ee7565b935050602061100a86828701610ee7565b925050604061101b86828701610f1d565b9150509250925092565b600060ff82169050919050565b61103b81611025565b82525050565b60006020820190506110566000830184611032565b92915050565b60006020828403121561107257611071610e99565b5b600061108084828501610f1d565b91505092915050565b60006020828403121561109f5761109e610e99565b5b60006110ad84828501610ee7565b91505092915050565b6110bf81610ebe565b82525050565b60006020820190506110da60008301846110b6565b92915050565b600080604083850312156110f7576110f6610e99565b5b600061110585828601610ee7565b925050602061111685828601610ee7565b9150509250929050565b7f4e487b7100000000000000000000000000000000000000000000000000000000600052602260045260246000fd5b6000600282049050600182168061116757607f821691505b60208210810361117a57611179611120565b5b50919050565b7f43616e6e6f74206d696e74206d6f7265207468616e203130303020746f6b656e60008201527f73206174206f6e63650000000000000000000000000000000000000000000000602082015250565b60006111dc602983610df2565b91506111e782611180565b604082019050919050565b6000602082019050818103600083015261120b816111cf565b9050919050565b600060608201905061122760008301866110b6565b6112346020830185610fa8565b6112416040830184610fa8565b949350505050565b7f4e487b7100000000000000000000000000000000000000000000000000000000600052601160045260246000fd5b600061128382610efc565b915061128e83610efc565b92508282019050808211156112a6576112a5611249565b5b9291505056fea26469706673582212209476b01a0528ea54d2bc0582907597cffbf7500529e8c4fce59fd63fc5d268fa64736f6c634300081c0033",
  "linkReferences": {},
  "deployedLinkReferences": {}
}