{
  "_format": "hh-sol-artifact-1",
  "contractName": "TypingGame",
  "sourceName": "contracts/Lock.sol",
  "abi": [
    {
      "inputs": [
        {
          "internalType": "address",
          "name": "_tokenAddress",
          "type": "address"
        }
      ],
      "stateMutability": "nonpayable",
      "type": "constructor"
    },
    {
      "anonymous": false,
      "inputs": [
        {
          "indexed": true,
          "internalType": "address",
          "name": "player",
          "type": "address"
        },
        {
          "indexed": false,
          "internalType": "uint256",
          "name": "amount",
          "type": "uint256"
        }
      ],
      "name": "Entered",
      "type": "event"
    },
    {
      "anonymous": false,
      "inputs": [
        {
          "indexed": true,
          "internalType": "address",
          "name": "player",
          "type": "address"
        },
        {
          "indexed": false,
          "internalType": "uint256",
          "name": "amount",
          "type": "uint256"
        }
      ],
      "name": "RewardClaimed",
      "type": "event"
    },
    {
      "anonymous": false,
      "inputs": [
        {
          "indexed": true,
          "internalType": "address",
          "name": "player",
          "type": "address"
        },
        {
          "indexed": false,
          "internalType": "uint256",
          "name": "wpm",
          "type": "uint256"
        },
        {
          "indexed": false,
          "internalType": "uint256",
          "name": "accuracy",
          "type": "uint256"
        }
      ],
      "name": "ScoreSubmitted",
      "type": "event"
    },
    {
      "inputs": [
        {
          "internalType": "address",
          "name": "_winner",
          "type": "address"
        },
        {
          "internalType": "uint256",
          "name": "_amount",
          "type": "uint256"
        }
      ],
      "name": "distributeRewards",
      "outputs": [],
      "stateMutability": "nonpayable",
      "type": "function"
    },
    {
      "inputs": [],
      "name": "enter",
      "outputs": [],
      "stateMutability": "nonpayable",
      "type": "function"
    },
    {
      "inputs": [],
      "name": "entryStake",
      "outputs": [
        {
          "internalType": "uint256",
          "name": "",
          "type": "uint256"
        }
      ],
      "stateMutability": "view",
      "type": "function"
    },
    {
      "inputs": [],
      "name": "getScores",
      "outputs": [
        {
          "components": [
            {
              "internalType": "address",
              "name": "player",
              "type": "address"
            },
            {
              "internalType": "uint256",
              "name": "wpm",
              "type": "uint256"
            },
            {
              "internalType": "uint256",
              "name": "accuracy",
              "type": "uint256"
            },
            {
              "internalType": "uint256",
              "name": "timestamp",
              "type": "uint256"
            }
          ],
          "internalType": "struct TypingGame.PlayerScore[]",
          "name": "",
          "type": "tuple[]"
        }
      ],
      "stateMutability": "view",
      "type": "function"
    },
    {
      "inputs": [
        {
          "internalType": "address",
          "name": "",
          "type": "address"
        }
      ],
      "name": "hasEntered",
      "outputs": [
        {
          "internalType": "bool",
          "name": "",
          "type": "bool"
        }
      ],
      "stateMutability": "view",
      "type": "function"
    },
    {
      "inputs": [],
      "name": "owner",
      "outputs": [
        {
          "internalType": "address",
          "name": "",
          "type": "address"
        }
      ],
      "stateMutability": "view",
      "type": "function"
    },
    {
      "inputs": [],
      "name": "prizePool",
      "outputs": [
        {
          "internalType": "uint256",
          "name": "",
          "type": "uint256"
        }
      ],
      "stateMutability": "view",
      "type": "function"
    },
    {
      "inputs": [
        {
          "internalType": "uint256",
          "name": "",
          "type": "uint256"
        }
      ],
      "name": "scores",
      "outputs": [
        {
          "internalType": "address",
          "name": "player",
          "type": "address"
        },
        {
          "internalType": "uint256",
          "name": "wpm",
          "type": "uint256"
        },
        {
          "internalType": "uint256",
          "name": "accuracy",
          "type": "uint256"
        },
        {
          "internalType": "uint256",
          "name": "timestamp",
          "type": "uint256"
        }
      ],
      "stateMutability": "view",
      "type": "function"
    },
    {
      "inputs": [
        {
          "internalType": "uint256",
          "name": "_newStake",
          "type": "uint256"
        }
      ],
      "name": "setEntryStake",
      "outputs": [],
      "stateMutability": "nonpayable",
      "type": "function"
    },
    {
      "inputs": [
        {
          "internalType": "uint256",
          "name": "_wpm",
          "type": "uint256"
        },
        {
          "internalType": "uint256",
          "name": "_accuracy",
          "type": "uint256"
        }
      ],
      "name": "submitScore",
      "outputs": [],
      "stateMutability": "nonpayable",
      "type": "function"
    },
    {
      "inputs": [],
      "name": "token",
      "outputs": [
        {
          "internalType": "contract IERC20",
          "name": "",
          "type": "address"
        }
      ],
      "stateMutability": "view",
      "type": "function"
    }
  ],
  "bytecode": "0x6080604052678ac7230489e8000060025534801561001c57600080fd5b506040516113f33803806113f3833981810160405281019061003e9190610128565b336000806101000a81548173ffffffffffffffffffffffffffffffffffffffff021916908373ffffffffffffffffffffffffffffffffffffffff16021790555080600160006101000a81548173ffffffffffffffffffffffffffffffffffffffff021916908373ffffffffffffffffffffffffffffffffffffffff16021790555050610155565b600080fd5b600073ffffffffffffffffffffffffffffffffffffffff82169050919050565b60006100f5826100ca565b9050919050565b610105816100ea565b811461011057600080fd5b50565b600081519050610122816100fc565b92915050565b60006020828403121561013e5761013d6100c5565b5b600061014c84828501610113565b91505092915050565b61128f806101646000396000f3fe608060405234801561001057600080fd5b50600436106100a95760003560e01c80638358ba08116100715780638358ba081461016b5780638da5cb5b14610187578063a8031a1d146101a5578063e97dcb62146101c1578063ea2b68c3146101cb578063fc0c546a146101e7576100a9565b80631ea1380c146100ae57806324d70dea146100cc5780632ee691a3146100fc5780636de0336c1461012f578063719ce73e1461014d575b600080fd5b6100b6610205565b6040516100c39190610ba5565b60405180910390f35b6100e660048036038101906100e19190610bf8565b6102d8565b6040516100f39190610c40565b60405180910390f35b61011660048036038101906101119190610c87565b6102f8565b6040516101269493929190610cd2565b60405180910390f35b610137610358565b6040516101449190610d17565b60405180910390f35b61015561035e565b6040516101629190610d17565b60405180910390f35b61018560048036038101906101809190610d32565b610364565b005b61018f610551565b60405161019c9190610d72565b60405180910390f35b6101bf60048036038101906101ba9190610d8d565b610575565b005b6101c9610754565b005b6101e560048036038101906101e09190610c87565b610989565b005b6101ef610a21565b6040516101fc9190610e2c565b60405180910390f35b60606004805480602002602001604051908101604052809291908181526020016000905b828210156102cf57838290600052602060002090600402016040518060800160405290816000820160009054906101000a900473ffffffffffffffffffffffffffffffffffffffff1673ffffffffffffffffffffffffffffffffffffffff1673ffffffffffffffffffffffffffffffffffffffff168152602001600182015481526020016002820154815260200160038201548152505081526020019060010190610229565b50505050905090565b60056020528060005260406000206000915054906101000a900460ff1681565b6004818154811061030857600080fd5b90600052602060002090600402016000915090508060000160009054906101000a900473ffffffffffffffffffffffffffffffffffffffff16908060010154908060020154908060030154905084565b60025481565b60035481565b600560003373ffffffffffffffffffffffffffffffffffffffff1673ffffffffffffffffffffffffffffffffffffffff16815260200190815260200160002060009054906101000a900460ff166103f0576040517f08c379a00000000000000000000000000000000000000000000000000000000081526004016103e790610ea4565b60405180910390fd5b6064811115610434576040517f08c379a000000000000000000000000000000000000000000000000000000000815260040161042b90610f10565b60405180910390fd5b600460405180608001604052803373ffffffffffffffffffffffffffffffffffffffff16815260200184815260200183815260200142815250908060018154018082558091505060019003906000526020600020906004020160009091909190915060008201518160000160006101000a81548173ffffffffffffffffffffffffffffffffffffffff021916908373ffffffffffffffffffffffffffffffffffffffff16021790555060208201518160010155604082015181600201556060820151816003015550503373ffffffffffffffffffffffffffffffffffffffff167fb7f20d0949b6a8bc59d005af4a52f7ff5d0cfcde9056fa556adb0e4b24dcb6d28383604051610545929190610f30565b60405180910390a25050565b60008054906101000a900473ffffffffffffffffffffffffffffffffffffffff1681565b60008054906101000a900473ffffffffffffffffffffffffffffffffffffffff1673ffffffffffffffffffffffffffffffffffffffff163373ffffffffffffffffffffffffffffffffffffffff1614610603576040517f08c379a00000000000000000000000000000000000000000000000000000000081526004016105fa90610fa5565b60405180910390fd5b806003541015610648576040517f08c379a000000000000000000000000000000000000000000000000000000000815260040161063f90611011565b60405180910390fd5b806003600082825461065a9190611060565b92505081905550600160009054906101000a900473ffffffffffffffffffffffffffffffffffffffff1673ffffffffffffffffffffffffffffffffffffffff1663a9059cbb83836040518363ffffffff1660e01b81526004016106be929190611094565b6020604051808303816000875af11580156106dd573d6000803e3d6000fd5b505050506040513d601f19601f8201168201806040525081019061070191906110e9565b508173ffffffffffffffffffffffffffffffffffffffff167f106f923f993c2149d49b4255ff723acafa1f2d94393f561d3eda32ae348f7241826040516107489190610d17565b60405180910390a25050565b600560003373ffffffffffffffffffffffffffffffffffffffff1673ffffffffffffffffffffffffffffffffffffffff16815260200190815260200160002060009054906101000a900460ff16156107e1576040517f08c379a00000000000000000000000000000000000000000000000000000000081526004016107d890611162565b60405180910390fd5b600160009054906101000a900473ffffffffffffffffffffffffffffffffffffffff1673ffffffffffffffffffffffffffffffffffffffff166323b872dd33306002546040518463ffffffff1660e01b815260040161084293929190611182565b6020604051808303816000875af1158015610861573d6000803e3d6000fd5b505050506040513d601f19601f8201168201806040525081019061088591906110e9565b6108c4576040517f08c379a00000000000000000000000000000000000000000000000000000000081526004016108bb90611205565b60405180910390fd5b6001600560003373ffffffffffffffffffffffffffffffffffffffff1673ffffffffffffffffffffffffffffffffffffffff16815260200190815260200160002060006101000a81548160ff021916908315150217905550600254600360008282546109309190611225565b925050819055503373ffffffffffffffffffffffffffffffffffffffff167fdb4b459b9af0810582f21ec0ec043ee9c3f91ea26a3d3a675dea0e9e5e099f0560025460405161097f9190610d17565b60405180910390a2565b60008054906101000a900473ffffffffffffffffffffffffffffffffffffffff1673ffffffffffffffffffffffffffffffffffffffff163373ffffffffffffffffffffffffffffffffffffffff1614610a17576040517f08c379a0000000000000000000000000000000000000000000000000000000008152600401610a0e90610fa5565b60405180910390fd5b8060028190555050565b600160009054906101000a900473ffffffffffffffffffffffffffffffffffffffff1681565b600081519050919050565b600082825260208201905092915050565b6000819050602082019050919050565b600073ffffffffffffffffffffffffffffffffffffffff82169050919050565b6000610a9e82610a73565b9050919050565b610aae81610a93565b82525050565b6000819050919050565b610ac781610ab4565b82525050565b608082016000820151610ae36000850182610aa5565b506020820151610af66020850182610abe565b506040820151610b096040850182610abe565b506060820151610b1c6060850182610abe565b50505050565b6000610b2e8383610acd565b60808301905092915050565b6000602082019050919050565b6000610b5282610a47565b610b5c8185610a52565b9350610b6783610a63565b8060005b83811015610b98578151610b7f8882610b22565b9750610b8a83610b3a565b925050600181019050610b6b565b5085935050505092915050565b60006020820190508181036000830152610bbf8184610b47565b905092915050565b600080fd5b610bd581610a93565b8114610be057600080fd5b50565b600081359050610bf281610bcc565b92915050565b600060208284031215610c0e57610c0d610bc7565b5b6000610c1c84828501610be3565b91505092915050565b60008115159050919050565b610c3a81610c25565b82525050565b6000602082019050610c556000830184610c31565b92915050565b610c6481610ab4565b8114610c6f57600080fd5b50565b600081359050610c8181610c5b565b92915050565b600060208284031215610c9d57610c9c610bc7565b5b6000610cab84828501610c72565b91505092915050565b610cbd81610a93565b82525050565b610ccc81610ab4565b82525050565b6000608082019050610ce76000830187610cb4565b610cf46020830186610cc3565b610d016040830185610cc3565b610d0e6060830184610cc3565b95945050505050565b6000602082019050610d2c6000830184610cc3565b92915050565b60008060408385031215610d4957610d48610bc7565b5b6000610d5785828601610c72565b9250506020610d6885828601610c72565b9150509250929050565b6000602082019050610d876000830184610cb4565b92915050565b60008060408385031215610da457610da3610bc7565b5b6000610db285828601610be3565b9250506020610dc385828601610c72565b9150509250929050565b6000819050919050565b6000610df2610ded610de884610a73565b610dcd565b610a73565b9050919050565b6000610e0482610dd7565b9050919050565b6000610e1682610df9565b9050919050565b610e2681610e0b565b82525050565b6000602082019050610e416000830184610e1d565b92915050565b600082825260208201905092915050565b7f4d75737420656e74657220666972737400000000000000000000000000000000600082015250565b6000610e8e601083610e47565b9150610e9982610e58565b602082019050919050565b60006020820190508181036000830152610ebd81610e81565b9050919050565b7f496e76616c696420616363757261637900000000000000000000000000000000600082015250565b6000610efa601083610e47565b9150610f0582610ec4565b602082019050919050565b60006020820190508181036000830152610f2981610eed565b9050919050565b6000604082019050610f456000830185610cc3565b610f526020830184610cc3565b9392505050565b7f4f6e6c79206f776e657200000000000000000000000000000000000000000000600082015250565b6000610f8f600a83610e47565b9150610f9a82610f59565b602082019050919050565b60006020820190508181036000830152610fbe81610f82565b9050919050565b7f496e73756666696369656e7420706f6f6c000000000000000000000000000000600082015250565b6000610ffb601183610e47565b915061100682610fc5565b602082019050919050565b6000602082019050818103600083015261102a81610fee565b9050919050565b7f4e487b7100000000000000000000000000000000000000000000000000000000600052601160045260246000fd5b600061106b82610ab4565b915061107683610ab4565b925082820390508181111561108e5761108d611031565b5b92915050565b60006040820190506110a96000830185610cb4565b6110b66020830184610cc3565b9392505050565b6110c681610c25565b81146110d157600080fd5b50565b6000815190506110e3816110bd565b92915050565b6000602082840312156110ff576110fe610bc7565b5b600061110d848285016110d4565b91505092915050565b7f416c726561647920656e74657265640000000000000000000000000000000000600082015250565b600061114c600f83610e47565b915061115782611116565b602082019050919050565b6000602082019050818103600083015261117b8161113f565b9050919050565b60006060820190506111976000830186610cb4565b6111a46020830185610cb4565b6111b16040830184610cc3565b949350505050565b7f5374616b65206661696c65640000000000000000000000000000000000000000600082015250565b60006111ef600c83610e47565b91506111fa826111b9565b602082019050919050565b6000602082019050818103600083015261121e816111e2565b9050919050565b600061123082610ab4565b915061123b83610ab4565b925082820190508082111561125357611252611031565b5b9291505056fea2646970667358221220c82623a5e0c537ee83b44e64ccab7b4b6f281dd98c07234cab3620056a16170164736f6c634300081c0033",
  "linkReferences": {},
  "deployedLinkReferences": {}
}